{
  "hash": "3326e0670f88df351e842d5e965ba70908e1f96292fac7ee9f5a9761a590949f",
  "confirmations": 83349,
  "strippedsize": 22870,
  "size": 22870,
  "weight": 91480,
  "height": 2904169,
  "version": 6422787,
  "versionHex": "00620103",
  "merkleroot": "7c477c437d50ef5a58ead4cb977f5c359a5e796d505340a0d2be60b6f0e3735a",
  "tx": [
    "6169d1ba1d95b2ff40e5463a61621e82c44d2186be09cd8512cf5c6666770b0f", 
    "79697598c9ebcda2362ad8bb4e45821f3028774ba299cdf7798c3a607e7d41e5", 
    "f233ade99f5f4695bb27d47345eb484a9a282b8f0a5ab0d43908d49f42c309dc", 
    "ea98d109b7ab2d8c819b782dfcf469afaa679d70227eca4397f2c9dce4b08ade", 
    "6f22843990f4736e3d2e7a8dca30f29cc4665bb20699ba1cef944fce6d5f9cd8", 
    "0d83c1ecf25efe5950400329777d966438aa37fcfaca51b46f360f62e2a8f7d0", 
    "e8dbe51c589d680f4cef1cf06d204716c65efad3b682be8dd937de6a39c8b99a", 
    "4f0e34fe7def7cf7a832e0ca1d24efc43a15f70a851bb34f87e1c0700414ca78", 
    "5605275ebd6daa9415553fb9cb28f5effae56629343b1761ce5514853a56c93d", 
    "a5c405c0e8157b112c373ae5f87f71da2c78527bd02cda9f8e330b34548b95a7", 
    "9b8355f643c60cedab5df6be9e9039689e67709658c7046ff5423198a5a1b37d", 
    "92e902ea753797fe9c859fcdfbcf0e18f41c841389591e258dd2aa03d76b735d", 
    "653c82c538ba6bfc46ca67d55005e3a1e88d1fa77a7ecc3463b0b09c30c04e1f", 
    "ed336ba21189fe3b3b01aaa65f01c903c42b780c64dbb83d8dfab2d668bffd50", 
    "0ab1a36de75fe40ea4f9a49487acc3c855c2afe7004a16e08b8adf8448aa7d93", 
    "a677da3ec8e36d30211892f97e9ef48ddd7bc3b56b3a490a5e0615763bf472aa", 
    "48c4fff4e377a38c047d834750236c278d29a39a5a9b52d1d53e28d919d4a7b0", 
    "d1b0cf3383d709ca5d64abd69d23f86f1ed4cd58b966fb3f5c871947f4aef732", 
    "d860d4907fb8203ee27f6aa383eacadd93621ac4230b1fa9e5476671fe4838d4", 
    "2e5f0377ede3f84bd67c1af086067911abe37a5feaa2edcf3c735649768738bf", 
    "accb770f8c6c9b5951bb061e4030ccf13869c75bc70d1a7f54f0b0cab4372e32", 
    "283e7eabf08f938501f823b7f06e59e45b0c2a8f4aa138808342b346991759d3", 
    "c056226c8c280090266c60a387bcec6f251069286bf1c059328a70892ab6ed00", 
    "d55d219f5f732c8e69473eb67baca078a9357bbab77e6e789cdeaa1bff89c052", 
    "66c585b1a31941748c79b9114342a31437328b12367deec5ec0382b63034b348", 
    "7b5b28767c357b94723194e2662b097a6a5163526bb25c3a849a0100f535ff05", 
    "d481f7100e61b26ef7ce9f34781e5e41bfea4d455b628fd01ac344e6492bfa4d", 
    "75f60664a28b9df0b5f9c7453b277c1073eb1dc1a2b44e5ae34584f18642f07e", 
    "7073b2fbb5efd33cd75449c64839ef3aaa7b25d00e2328adb8884a4447696d47", 
    "bfdfbd1100c33f974b6b6c0b28fbb24a39d1697a75f5924da68f70bb317734b0", 
    "6eee453a3153622dc772c492967ba25d55efcc59ca7f394575bf6f9b5bff0465", 
    "d260e898811902237c9a429144bd73f27f314ac274e44732b37b95602136e98b", 
    "c51d5fb7b7e0ef57988009116264b9d7ff09f2a9299401f64ebcbc8ccdf87dab", 
    "769f4d1837c4365d5d4ea302ce185582e0f51004216c47297fe3899f880c8845", 
    "06df4aca15fc247264504fd727233a09d65383c71c097ec1122c19b9e1a08909", 
    "d674fd395630bf92c681a39c56ebd1961d6be88695a1501dfd6cf03944ab9f55", 
    "f96589add2b1e4ac40096f53ad95be0f1382b105f10ca6e674329c8ed3895546", 
    "a36624e0e60c76b3239a827d8cab539c403d9a5cfd2b82ac52900d3e2c1f1818", 
    "2ec4931f726073fe0625dfd0e4fea012228f9d48355d2bed69c986a17ba893da", 
    "c2e84e2b14c125a4db18c6c769ac829c049929afec9e54ee934f8976729a5b5c", 
    "69bb578ae6d48df0f89fbcaf815b216bc8d589b7ed2c14e603b9ca10ba1e1de9", 
    "46e5c21efb6defeadf4b53c99462d0bf62ed5d8d5d279ad9ab02cfa9d21a58cb", 
    "6c9f37d13bb4e90cf1f8e249a9c53dfed15462928a75cda8b283b7b5439f89f5", 
    "63de9f4da10693813c977e895dafff0ae725ff9011c76d90f483c6243890ebb6", 
    "da4277c7bb8eaa97aa0c00b05c0b3f74d54d2e3e7278294ca180c617f0b7affc", 
    "6d145f9f0ca747c6b7a7a7197744ed40613db72d096fd95bcf0a40c9fae388dc", 
    "4399b6d8b6ee344a0859e64c8c022319f103844e2065935e3cc2eed0431b5747"
  ],
  "time": 1569099383,
  "mediantime": 1569098921,
  "nonce": 0,
  "bits": "1a0431a3",
  "difficulty": 4000330.544767892,
  "chainwork": "0000000000000000000000000000000000000000000002acbb45738364c1b834",
  "auxpow": {
    "tx": {
      "hex": "01000000010000000000000000000000000000000000000000000000000000000000000000ffffffff55034e0a1a41d761a3a23a22c541d761a3a0fd4c322f4c54432e544f502ffabe6d6d5efd8f264779a173a3ff62d33c1a92cb86485c6032667c77cb1f49219e63e8ed10000000000000008e11da5c0400000000000000ffffffff025e0b914a000000001976a9140c617fdb2ea42aed30a509595ee21ba3f6688db088ac0000000000000000266a24aa21a9ed98926c4c2bb30663c00ee0c5c695a673272e3a9c40b2ea5e80620ddd988ea19300000000",
      "txid": "df518c511d1b7e2797984da4c076c763b5fb1b996200ec30b158362930615d87",
      "hash": "df518c511d1b7e2797984da4c076c763b5fb1b996200ec30b158362930615d87",
      "size": 217,
      "vsize": 217,
      "version": 1,
      "locktime": 0,
      "vin": [
        {
          "coinbase": "034e0a1a41d761a3a23a22c541d761a3a0fd4c322f4c54432e544f502ffabe6d6d5efd8f264779a173a3ff62d33c1a92cb86485c6032667c77cb1f49219e63e8ed10000000000000008e11da5c0400000000000000",
          "sequence": 4294967295
        }
      ],
      "vout": [
        {
          "value": 12.51019614,
          "n": 0,
          "scriptPubKey": {
            "asm": "OP_DUP OP_HASH160 0c617fdb2ea42aed30a509595ee21ba3f6688db0 OP_EQUALVERIFY OP_CHECKSIG",
            "hex": "76a9140c617fdb2ea42aed30a509595ee21ba3f6688db088ac",
            "reqSigs": 1,
            "type": "pubkeyhash",
            "addresses": [
              "D6GZSwUs3wPsKAvg8VD3ppBApypRW4fQj7"
            ]
          }
        }, 
        {
          "value": 0.00000000,
          "n": 1,
          "scriptPubKey": {
            "asm": "OP_RETURN aa21a9ed98926c4c2bb30663c00ee0c5c695a673272e3a9c40b2ea5e80620ddd988ea193",
            "hex": "6a24aa21a9ed98926c4c2bb30663c00ee0c5c695a673272e3a9c40b2ea5e80620ddd988ea193",
            "type": "nulldata"
          }
        }
      ],
      "blockhash": "7c59eb04817ef58bfffbf1b5662dff11ac6544a36954d66eebee9227ad189160"
    },
    "index": 0,
    "chainindex": 8,
    "merklebranch": [
      "17d4d605a41021bc4a652d4491e4fb2d3af11109475a38542e12832dc9101502", 
      "b44dff72b22c1c4ee776bd8a823a02f3744bbea4de4bf91d210e7d8598e77f6e", 
      "46f7fd0e10cdaed69b5dac2ff5600f1f5ad90db9f4ad8200534baf1b875bb773", 
      "08a3cc3d9705713791bf2615d1dbd91cfb87d2a4bb39f53cb3b8b644bf7e8134", 
      "c25c8324ef9137c7070b787d1b9ffd5632daa68985f8c9583688eb24ac0201cb", 
      "f4755f07a291ca6910ec371b3e4cfe337fd057a5c9a05cffb4afa5e94e67e30e"
    ],
    "chainmerklebranch": [
      "d16cb5bae0bf81f9ba0022c50ff87fa960fa9f6ce746e0d61e28fdc1ad263e10", 
      "8a24f40b60f817950d4f2f2dedd0d6dfcb8020e2d3e418fdb9e092b3c4ae982c", 
      "84b9b0d50d6a592eaefa6e7add060e45f7f972807506d16b67ca99270e900492", 
      "3a28fbd764017e3f19a33526033d9d6beea2051c73f0aca629a7102598226991"
    ],
    "parentblock": "00000020770317182cfb3deb09708e800e7d6a20b72c27b03e2c1d09cb313d31dc1b115231a94bb242a0876360fdeb2cafd638ebda37d5b93046ca8932876d60c7476bff838e865d5b84011a9e6973d5"
  },
  "previousblockhash": "4d7f41b4dcddb54db524618ed304ed39924bfb1cbbf06e665f8866b7e7c71a15",
  "nextblockhash": "ef9b6adad5a391152ed59b20372fee06c01c622532a9b8077e49f446249c1d65"
}
